{
  "_format": "hh-sol-artifact-1",
  "contractName": "StableCoin",
  "sourceName": "contracts/ImpacttoMoney.sol",
  "abi": [
    {
      "inputs": [
        {
          "internalType": "address",
          "name": "initialOwner",
          "type": "address"
        }
      ],
      "stateMutability": "nonpayable",
      "type": "constructor"
    },
    {
      "inputs": [
        {
          "internalType": "address",
          "name": "spender",
          "type": "address"
        },
        {
          "internalType": "uint256",
          "name": "allowance",
          "type": "uint256"
        },
        {
          "internalType": "uint256",
          "name": "needed",
          "type": "uint256"
        }
      ],
      "name": "ERC20InsufficientAllowance",
      "type": "error"
    },
    {
      "inputs": [
        {
          "internalType": "address",
          "name": "sender",
          "type": "address"
        },
        {
          "internalType": "uint256",
          "name": "balance",
          "type": "uint256"
        },
        {
          "internalType": "uint256",
          "name": "needed",
          "type": "uint256"
        }
      ],
      "name": "ERC20InsufficientBalance",
      "type": "error"
    },
    {
      "inputs": [
        {
          "internalType": "address",
          "name": "approver",
          "type": "address"
        }
      ],
      "name": "ERC20InvalidApprover",
      "type": "error"
    },
    {
      "inputs": [
        {
          "internalType": "address",
          "name": "receiver",
          "type": "address"
        }
      ],
      "name": "ERC20InvalidReceiver",
      "type": "error"
    },
    {
      "inputs": [
        {
          "internalType": "address",
          "name": "sender",
          "type": "address"
        }
      ],
      "name": "ERC20InvalidSender",
      "type": "error"
    },
    {
      "inputs": [
        {
          "internalType": "address",
          "name": "spender",
          "type": "address"
        }
      ],
      "name": "ERC20InvalidSpender",
      "type": "error"
    },
    {
      "inputs": [
        {
          "internalType": "address",
          "name": "owner",
          "type": "address"
        }
      ],
      "name": "OwnableInvalidOwner",
      "type": "error"
    },
    {
      "inputs": [
        {
          "internalType": "address",
          "name": "account",
          "type": "address"
        }
      ],
      "name": "OwnableUnauthorizedAccount",
      "type": "error"
    },
    {
      "anonymous": false,
      "inputs": [
        {
          "indexed": true,
          "internalType": "address",
          "name": "owner",
          "type": "address"
        },
        {
          "indexed": true,
          "internalType": "address",
          "name": "spender",
          "type": "address"
        },
        {
          "indexed": false,
          "internalType": "uint256",
          "name": "value",
          "type": "uint256"
        }
      ],
      "name": "Approval",
      "type": "event"
    },
    {
      "anonymous": false,
      "inputs": [
        {
          "indexed": true,
          "internalType": "address",
          "name": "from",
          "type": "address"
        },
        {
          "indexed": false,
          "internalType": "uint256",
          "name": "amount",
          "type": "uint256"
        }
      ],
      "name": "Burn",
      "type": "event"
    },
    {
      "anonymous": false,
      "inputs": [
        {
          "indexed": true,
          "internalType": "address",
          "name": "to",
          "type": "address"
        },
        {
          "indexed": false,
          "internalType": "uint256",
          "name": "amount",
          "type": "uint256"
        }
      ],
      "name": "Mint",
      "type": "event"
    },
    {
      "anonymous": false,
      "inputs": [
        {
          "indexed": true,
          "internalType": "address",
          "name": "previousOwner",
          "type": "address"
        },
        {
          "indexed": true,
          "internalType": "address",
          "name": "newOwner",
          "type": "address"
        }
      ],
      "name": "OwnershipTransferred",
      "type": "event"
    },
    {
      "anonymous": false,
      "inputs": [
        {
          "indexed": true,
          "internalType": "address",
          "name": "from",
          "type": "address"
        },
        {
          "indexed": true,
          "internalType": "address",
          "name": "to",
          "type": "address"
        },
        {
          "indexed": false,
          "internalType": "uint256",
          "name": "value",
          "type": "uint256"
        }
      ],
      "name": "Transfer",
      "type": "event"
    },
    {
      "inputs": [
        {
          "internalType": "address",
          "name": "owner",
          "type": "address"
        },
        {
          "internalType": "address",
          "name": "spender",
          "type": "address"
        }
      ],
      "name": "allowance",
      "outputs": [
        {
          "internalType": "uint256",
          "name": "",
          "type": "uint256"
        }
      ],
      "stateMutability": "view",
      "type": "function"
    },
    {
      "inputs": [
        {
          "internalType": "address",
          "name": "spender",
          "type": "address"
        },
        {
          "internalType": "uint256",
          "name": "value",
          "type": "uint256"
        }
      ],
      "name": "approve",
      "outputs": [
        {
          "internalType": "bool",
          "name": "",
          "type": "bool"
        }
      ],
      "stateMutability": "nonpayable",
      "type": "function"
    },
    {
      "inputs": [
        {
          "internalType": "address",
          "name": "account",
          "type": "address"
        }
      ],
      "name": "balanceOf",
      "outputs": [
        {
          "internalType": "uint256",
          "name": "",
          "type": "uint256"
        }
      ],
      "stateMutability": "view",
      "type": "function"
    },
    {
      "inputs": [
        {
          "internalType": "address[]",
          "name": "recipients",
          "type": "address[]"
        },
        {
          "internalType": "uint256",
          "name": "totalAmount",
          "type": "uint256"
        }
      ],
      "name": "batchTransferEqual",
      "outputs": [],
      "stateMutability": "nonpayable",
      "type": "function"
    },
    {
      "inputs": [
        {
          "internalType": "uint256",
          "name": "amount",
          "type": "uint256"
        }
      ],
      "name": "burn",
      "outputs": [],
      "stateMutability": "nonpayable",
      "type": "function"
    },
    {
      "inputs": [],
      "name": "decimals",
      "outputs": [
        {
          "internalType": "uint8",
          "name": "",
          "type": "uint8"
        }
      ],
      "stateMutability": "view",
      "type": "function"
    },
    {
      "inputs": [
        {
          "internalType": "address",
          "name": "to",
          "type": "address"
        },
        {
          "internalType": "uint256",
          "name": "amount",
          "type": "uint256"
        }
      ],
      "name": "mint",
      "outputs": [],
      "stateMutability": "nonpayable",
      "type": "function"
    },
    {
      "inputs": [],
      "name": "name",
      "outputs": [
        {
          "internalType": "string",
          "name": "",
          "type": "string"
        }
      ],
      "stateMutability": "view",
      "type": "function"
    },
    {
      "inputs": [],
      "name": "owner",
      "outputs": [
        {
          "internalType": "address",
          "name": "",
          "type": "address"
        }
      ],
      "stateMutability": "view",
      "type": "function"
    },
    {
      "inputs": [],
      "name": "pause",
      "outputs": [],
      "stateMutability": "nonpayable",
      "type": "function"
    },
    {
      "inputs": [],
      "name": "paused",
      "outputs": [
        {
          "internalType": "bool",
          "name": "",
          "type": "bool"
        }
      ],
      "stateMutability": "view",
      "type": "function"
    },
    {
      "inputs": [],
      "name": "renounceOwnership",
      "outputs": [],
      "stateMutability": "nonpayable",
      "type": "function"
    },
    {
      "inputs": [],
      "name": "symbol",
      "outputs": [
        {
          "internalType": "string",
          "name": "",
          "type": "string"
        }
      ],
      "stateMutability": "view",
      "type": "function"
    },
    {
      "inputs": [],
      "name": "totalSupply",
      "outputs": [
        {
          "internalType": "uint256",
          "name": "",
          "type": "uint256"
        }
      ],
      "stateMutability": "view",
      "type": "function"
    },
    {
      "inputs": [
        {
          "internalType": "address",
          "name": "to",
          "type": "address"
        },
        {
          "internalType": "uint256",
          "name": "value",
          "type": "uint256"
        }
      ],
      "name": "transfer",
      "outputs": [
        {
          "internalType": "bool",
          "name": "",
          "type": "bool"
        }
      ],
      "stateMutability": "nonpayable",
      "type": "function"
    },
    {
      "inputs": [
        {
          "internalType": "address",
          "name": "from",
          "type": "address"
        },
        {
          "internalType": "address",
          "name": "to",
          "type": "address"
        },
        {
          "internalType": "uint256",
          "name": "value",
          "type": "uint256"
        }
      ],
      "name": "transferFrom",
      "outputs": [
        {
          "internalType": "bool",
          "name": "",
          "type": "bool"
        }
      ],
      "stateMutability": "nonpayable",
      "type": "function"
    },
    {
      "inputs": [
        {
          "internalType": "address",
          "name": "newOwner",
          "type": "address"
        }
      ],
      "name": "transferOwnership",
      "outputs": [],
      "stateMutability": "nonpayable",
      "type": "function"
    },
    {
      "inputs": [],
      "name": "unpause",
      "outputs": [],
      "stateMutability": "nonpayable",
      "type": "function"
    }
  ],
  "bytecode": "0x60806040526000600560146101000a81548160ff0219169083151502179055503480156200002c57600080fd5b5060405162002197380380620021978339818101604052810190620000529190620005a8565b806040518060400160405280600a81526020017f537461626c65436f696e000000000000000000000000000000000000000000008152506040518060400160405280600481526020017f55534454000000000000000000000000000000000000000000000000000000008152508160039081620000d0919062000854565b508060049081620000e2919062000854565b505050600073ffffffffffffffffffffffffffffffffffffffff168173ffffffffffffffffffffffffffffffffffffffff16036200015a5760006040517f1e4fbdf70000000000000000000000000000000000000000000000000000000081526004016200015191906200094c565b60405180910390fd5b6200016b81620001b260201b60201c565b50620001ab33620001816200027860201b60201c565b600a6200018f919062000af9565b620f42406200019f919062000b4a565b6200028160201b60201c565b5062000c3b565b6000600560009054906101000a900473ffffffffffffffffffffffffffffffffffffffff16905081600560006101000a81548173ffffffffffffffffffffffffffffffffffffffff021916908373ffffffffffffffffffffffffffffffffffffffff1602179055508173ffffffffffffffffffffffffffffffffffffffff168173ffffffffffffffffffffffffffffffffffffffff167f8be0079c531659141344cd1fd0a4f28419497f9722a3daafe3b4186f6b6457e060405160405180910390a35050565b60006012905090565b600073ffffffffffffffffffffffffffffffffffffffff168273ffffffffffffffffffffffffffffffffffffffff1603620002f65760006040517fec442f05000000000000000000000000000000000000000000000000000000008152600401620002ed91906200094c565b60405180910390fd5b6200030a600083836200030e60201b60201c565b5050565b600073ffffffffffffffffffffffffffffffffffffffff168373ffffffffffffffffffffffffffffffffffffffff16036200036457806002600082825462000357919062000b95565b925050819055506200043a565b60008060008573ffffffffffffffffffffffffffffffffffffffff1673ffffffffffffffffffffffffffffffffffffffff16815260200190815260200160002054905081811015620003f3578381836040517fe450d38c000000000000000000000000000000000000000000000000000000008152600401620003ea9392919062000be1565b60405180910390fd5b8181036000808673ffffffffffffffffffffffffffffffffffffffff1673ffffffffffffffffffffffffffffffffffffffff16815260200190815260200160002081905550505b600073ffffffffffffffffffffffffffffffffffffffff168273ffffffffffffffffffffffffffffffffffffffff1603620004855780600260008282540392505081905550620004d2565b806000808473ffffffffffffffffffffffffffffffffffffffff1673ffffffffffffffffffffffffffffffffffffffff168152602001908152602001600020600082825401925050819055505b8173ffffffffffffffffffffffffffffffffffffffff168373ffffffffffffffffffffffffffffffffffffffff167fddf252ad1be2c89b69c2b068fc378daa952ba7f163c4a11628f55a4df523b3ef8360405162000531919062000c1e565b60405180910390a3505050565b600080fd5b600073ffffffffffffffffffffffffffffffffffffffff82169050919050565b6000620005708262000543565b9050919050565b620005828162000563565b81146200058e57600080fd5b50565b600081519050620005a28162000577565b92915050565b600060208284031215620005c157620005c06200053e565b5b6000620005d18482850162000591565b91505092915050565b600081519050919050565b7f4e487b7100000000000000000000000000000000000000000000000000000000600052604160045260246000fd5b7f4e487b7100000000000000000000000000000000000000000000000000000000600052602260045260246000fd5b600060028204905060018216806200065c57607f821691505b60208210810362000672576200067162000614565b5b50919050565b60008190508160005260206000209050919050565b60006020601f8301049050919050565b600082821b905092915050565b600060088302620006dc7fffffffffffffffffffffffffffffffffffffffffffffffffffffffffffffffff826200069d565b620006e886836200069d565b95508019841693508086168417925050509392505050565b6000819050919050565b6000819050919050565b6000620007356200072f620007298462000700565b6200070a565b62000700565b9050919050565b6000819050919050565b620007518362000714565b6200076962000760826200073c565b848454620006aa565b825550505050565b600090565b6200078062000771565b6200078d81848462000746565b505050565b5b81811015620007b557620007a960008262000776565b60018101905062000793565b5050565b601f8211156200080457620007ce8162000678565b620007d9846200068d565b81016020851015620007e9578190505b62000801620007f8856200068d565b83018262000792565b50505b505050565b600082821c905092915050565b6000620008296000198460080262000809565b1980831691505092915050565b600062000844838362000816565b9150826002028217905092915050565b6200085f82620005da565b67ffffffffffffffff8111156200087b576200087a620005e5565b5b62000887825462000643565b62000894828285620007b9565b600060209050601f831160018114620008cc5760008415620008b7578287015190505b620008c3858262000836565b86555062000933565b601f198416620008dc8662000678565b60005b828110156200090657848901518255600182019150602085019450602081019050620008df565b8683101562000926578489015162000922601f89168262000816565b8355505b6001600288020188555050505b505050505050565b620009468162000563565b82525050565b60006020820190506200096360008301846200093b565b92915050565b7f4e487b7100000000000000000000000000000000000000000000000000000000600052601160045260246000fd5b60008160011c9050919050565b6000808291508390505b6001851115620009f757808604811115620009cf57620009ce62000969565b5b6001851615620009df5780820291505b8081029050620009ef8562000998565b9450620009af565b94509492505050565b60008262000a12576001905062000ae5565b8162000a22576000905062000ae5565b816001811462000a3b576002811462000a465762000a7c565b600191505062000ae5565b60ff84111562000a5b5762000a5a62000969565b5b8360020a91508482111562000a755762000a7462000969565b5b5062000ae5565b5060208310610133831016604e8410600b841016171562000ab65782820a90508381111562000ab05762000aaf62000969565b5b62000ae5565b62000ac58484846001620009a5565b9250905081840481111562000adf5762000ade62000969565b5b81810290505b9392505050565b600060ff82169050919050565b600062000b068262000700565b915062000b138362000aec565b925062000b427fffffffffffffffffffffffffffffffffffffffffffffffffffffffffffffffff848462000a00565b905092915050565b600062000b578262000700565b915062000b648362000700565b925082820262000b748162000700565b9150828204841483151762000b8e5762000b8d62000969565b5b5092915050565b600062000ba28262000700565b915062000baf8362000700565b925082820190508082111562000bca5762000bc962000969565b5b92915050565b62000bdb8162000700565b82525050565b600060608201905062000bf860008301866200093b565b62000c07602083018562000bd0565b62000c16604083018462000bd0565b949350505050565b600060208201905062000c35600083018462000bd0565b92915050565b61154c8062000c4b6000396000f3fe608060405234801561001057600080fd5b506004361061010b5760003560e01c80635c975abb116100a25780638da5cb5b116100715780638da5cb5b1461026e57806395d89b411461028c578063a9059cbb146102aa578063dd62ed3e146102da578063f2fde38b1461030a5761010b565b80635c975abb1461020c57806370a082311461022a578063715018a61461025a5780638456cb59146102645761010b565b8063313ce567116100de578063313ce567146101ac5780633f4ba83a146101ca57806340c10f19146101d457806342966c68146101f05761010b565b806306fdde0314610110578063095ea7b31461012e57806318160ddd1461015e57806323b872dd1461017c575b600080fd5b610118610326565b604051610125919061109b565b60405180910390f35b61014860048036038101906101439190611156565b6103b8565b60405161015591906111b1565b60405180910390f35b6101666103db565b60405161017391906111db565b60405180910390f35b610196600480360381019061019191906111f6565b6103e5565b6040516101a391906111b1565b60405180910390f35b6101b4610414565b6040516101c19190611265565b60405180910390f35b6101d261041d565b005b6101ee60048036038101906101e99190611156565b610442565b005b61020a60048036038101906102059190611280565b6104a6565b005b61021461059c565b60405161022191906111b1565b60405180910390f35b610244600480360381019061023f91906112ad565b6105af565b60405161025191906111db565b60405180910390f35b6102626105f7565b005b61026c61060b565b005b610276610630565b60405161028391906112e9565b60405180910390f35b61029461065a565b6040516102a1919061109b565b60405180910390f35b6102c460048036038101906102bf9190611156565b6106ec565b6040516102d191906111b1565b60405180910390f35b6102f460048036038101906102ef9190611304565b61070f565b60405161030191906111db565b60405180910390f35b610324600480360381019061031f91906112ad565b610796565b005b60606003805461033590611373565b80601f016020809104026020016040519081016040528092919081815260200182805461036190611373565b80156103ae5780601f10610383576101008083540402835291602001916103ae565b820191906000526020600020905b81548152906001019060200180831161039157829003601f168201915b5050505050905090565b6000806103c361081c565b90506103d0818585610824565b600191505092915050565b6000600254905090565b6000806103f061081c565b90506103fd858285610836565b6104088585856108ca565b60019150509392505050565b60006012905090565b6104256109be565b6000600560146101000a81548160ff021916908315150217905550565b61044a6109be565b6104548282610a45565b8173ffffffffffffffffffffffffffffffffffffffff167f0f6798a560793a54c3bcfe86a93cde1e73087d944c0ea20544137d41213968858260405161049a91906111db565b60405180910390a25050565b600560149054906101000a900460ff16156104f6576040517f08c379a00000000000000000000000000000000000000000000000000000000081526004016104ed906113f0565b60405180910390fd5b80610500336105af565b1015610541576040517f08c379a00000000000000000000000000000000000000000000000000000000081526004016105389061145c565b60405180910390fd5b61054b3382610ac7565b3373ffffffffffffffffffffffffffffffffffffffff167fcc16f5dbb4873280815c1ee09dbd06736cffcc184412cf7a71a0fdb75d397ca58260405161059191906111db565b60405180910390a250565b600560149054906101000a900460ff1681565b60008060008373ffffffffffffffffffffffffffffffffffffffff1673ffffffffffffffffffffffffffffffffffffffff168152602001908152602001600020549050919050565b6105ff6109be565b6106096000610b49565b565b6106136109be565b6001600560146101000a81548160ff021916908315150217905550565b6000600560009054906101000a900473ffffffffffffffffffffffffffffffffffffffff16905090565b60606004805461066990611373565b80601f016020809104026020016040519081016040528092919081815260200182805461069590611373565b80156106e25780601f106106b7576101008083540402835291602001916106e2565b820191906000526020600020905b8154815290600101906020018083116106c557829003601f168201915b5050505050905090565b6000806106f761081c565b90506107048185856108ca565b600191505092915050565b6000600160008473ffffffffffffffffffffffffffffffffffffffff1673ffffffffffffffffffffffffffffffffffffffff16815260200190815260200160002060008373ffffffffffffffffffffffffffffffffffffffff1673ffffffffffffffffffffffffffffffffffffffff16815260200190815260200160002054905092915050565b61079e6109be565b600073ffffffffffffffffffffffffffffffffffffffff168173ffffffffffffffffffffffffffffffffffffffff16036108105760006040517f1e4fbdf700000000000000000000000000000000000000000000000000000000815260040161080791906112e9565b60405180910390fd5b61081981610b49565b50565b600033905090565b6108318383836001610c0f565b505050565b6000610842848461070f565b90507fffffffffffffffffffffffffffffffffffffffffffffffffffffffffffffffff81146108c457818110156108b4578281836040517ffb8f41b20000000000000000000000000000000000000000000000000000000081526004016108ab9392919061147c565b60405180910390fd5b6108c384848484036000610c0f565b5b50505050565b600073ffffffffffffffffffffffffffffffffffffffff168373ffffffffffffffffffffffffffffffffffffffff160361093c5760006040517f96c6fd1e00000000000000000000000000000000000000000000000000000000815260040161093391906112e9565b60405180910390fd5b600073ffffffffffffffffffffffffffffffffffffffff168273ffffffffffffffffffffffffffffffffffffffff16036109ae5760006040517fec442f050000000000000000000000000000000000000000000000000000000081526004016109a591906112e9565b60405180910390fd5b6109b9838383610de6565b505050565b6109c661081c565b73ffffffffffffffffffffffffffffffffffffffff166109e4610630565b73ffffffffffffffffffffffffffffffffffffffff1614610a4357610a0761081c565b6040517f118cdaa7000000000000000000000000000000000000000000000000000000008152600401610a3a91906112e9565b60405180910390fd5b565b600073ffffffffffffffffffffffffffffffffffffffff168273ffffffffffffffffffffffffffffffffffffffff1603610ab75760006040517fec442f05000000000000000000000000000000000000000000000000000000008152600401610aae91906112e9565b60405180910390fd5b610ac360008383610de6565b5050565b600073ffffffffffffffffffffffffffffffffffffffff168273ffffffffffffffffffffffffffffffffffffffff1603610b395760006040517f96c6fd1e000000000000000000000000000000000000000000000000000000008152600401610b3091906112e9565b60405180910390fd5b610b4582600083610de6565b5050565b6000600560009054906101000a900473ffffffffffffffffffffffffffffffffffffffff16905081600560006101000a81548173ffffffffffffffffffffffffffffffffffffffff021916908373ffffffffffffffffffffffffffffffffffffffff1602179055508173ffffffffffffffffffffffffffffffffffffffff168173ffffffffffffffffffffffffffffffffffffffff167f8be0079c531659141344cd1fd0a4f28419497f9722a3daafe3b4186f6b6457e060405160405180910390a35050565b600073ffffffffffffffffffffffffffffffffffffffff168473ffffffffffffffffffffffffffffffffffffffff1603610c815760006040517fe602df05000000000000000000000000000000000000000000000000000000008152600401610c7891906112e9565b60405180910390fd5b600073ffffffffffffffffffffffffffffffffffffffff168373ffffffffffffffffffffffffffffffffffffffff1603610cf35760006040517f94280d62000000000000000000000000000000000000000000000000000000008152600401610cea91906112e9565b60405180910390fd5b81600160008673ffffffffffffffffffffffffffffffffffffffff1673ffffffffffffffffffffffffffffffffffffffff16815260200190815260200160002060008573ffffffffffffffffffffffffffffffffffffffff1673ffffffffffffffffffffffffffffffffffffffff168152602001908152602001600020819055508015610de0578273ffffffffffffffffffffffffffffffffffffffff168473ffffffffffffffffffffffffffffffffffffffff167f8c5be1e5ebec7d5bd14f71427d1e84f3dd0314c0f7b2291e5b200ac8c7c3b92584604051610dd791906111db565b60405180910390a35b50505050565b600073ffffffffffffffffffffffffffffffffffffffff168373ffffffffffffffffffffffffffffffffffffffff1603610e38578060026000828254610e2c91906114e2565b92505081905550610f0b565b60008060008573ffffffffffffffffffffffffffffffffffffffff1673ffffffffffffffffffffffffffffffffffffffff16815260200190815260200160002054905081811015610ec4578381836040517fe450d38c000000000000000000000000000000000000000000000000000000008152600401610ebb9392919061147c565b60405180910390fd5b8181036000808673ffffffffffffffffffffffffffffffffffffffff1673ffffffffffffffffffffffffffffffffffffffff16815260200190815260200160002081905550505b600073ffffffffffffffffffffffffffffffffffffffff168273ffffffffffffffffffffffffffffffffffffffff1603610f545780600260008282540392505081905550610fa1565b806000808473ffffffffffffffffffffffffffffffffffffffff1673ffffffffffffffffffffffffffffffffffffffff168152602001908152602001600020600082825401925050819055505b8173ffffffffffffffffffffffffffffffffffffffff168373ffffffffffffffffffffffffffffffffffffffff167fddf252ad1be2c89b69c2b068fc378daa952ba7f163c4a11628f55a4df523b3ef83604051610ffe91906111db565b60405180910390a3505050565b600081519050919050565b600082825260208201905092915050565b60005b8381101561104557808201518184015260208101905061102a565b60008484015250505050565b6000601f19601f8301169050919050565b600061106d8261100b565b6110778185611016565b9350611087818560208601611027565b61109081611051565b840191505092915050565b600060208201905081810360008301526110b58184611062565b905092915050565b600080fd5b600073ffffffffffffffffffffffffffffffffffffffff82169050919050565b60006110ed826110c2565b9050919050565b6110fd816110e2565b811461110857600080fd5b50565b60008135905061111a816110f4565b92915050565b6000819050919050565b61113381611120565b811461113e57600080fd5b50565b6000813590506111508161112a565b92915050565b6000806040838503121561116d5761116c6110bd565b5b600061117b8582860161110b565b925050602061118c85828601611141565b9150509250929050565b60008115159050919050565b6111ab81611196565b82525050565b60006020820190506111c660008301846111a2565b92915050565b6111d581611120565b82525050565b60006020820190506111f060008301846111cc565b92915050565b60008060006060848603121561120f5761120e6110bd565b5b600061121d8682870161110b565b935050602061122e8682870161110b565b925050604061123f86828701611141565b9150509250925092565b600060ff82169050919050565b61125f81611249565b82525050565b600060208201905061127a6000830184611256565b92915050565b600060208284031215611296576112956110bd565b5b60006112a484828501611141565b91505092915050565b6000602082840312156112c3576112c26110bd565b5b60006112d18482850161110b565b91505092915050565b6112e3816110e2565b82525050565b60006020820190506112fe60008301846112da565b92915050565b6000806040838503121561131b5761131a6110bd565b5b60006113298582860161110b565b925050602061133a8582860161110b565b9150509250929050565b7f4e487b7100000000000000000000000000000000000000000000000000000000600052602260045260246000fd5b6000600282049050600182168061138b57607f821691505b60208210810361139e5761139d611344565b5b50919050565b7f5472616e73666572732061726520706175736564000000000000000000000000600082015250565b60006113da601483611016565b91506113e5826113a4565b602082019050919050565b60006020820190508181036000830152611409816113cd565b9050919050565b7f496e73756666696369656e742062616c616e6365000000000000000000000000600082015250565b6000611446601483611016565b915061145182611410565b602082019050919050565b6000602082019050818103600083015261147581611439565b9050919050565b600060608201905061149160008301866112da565b61149e60208301856111cc565b6114ab60408301846111cc565b949350505050565b7f4e487b7100000000000000000000000000000000000000000000000000000000600052601160045260246000fd5b60006114ed82611120565b91506114f883611120565b92508282019050808211156115105761150f6114b3565b5b9291505056fea26469706673582212206773976580df922df5043de1425cc1f78126e65c292587dc33d3f4e9b1a2672f64736f6c63430008180033",
  "linkReferences": {},
  "deployedLinkReferences": {}
}